{
  "fileName": "MarketplaceStorage.sol",
  "contractName": "MarketplaceStorage",
  "source": "pragma solidity ^0.5.2;\n\nimport \"@openzeppelin/contracts-ethereum-package/contracts/token/ERC20/IERC20.sol\";\nimport \"@openzeppelin/contracts-ethereum-package/contracts/token/ERC721/IERC721Full.sol\";\n\ncontract MarketplaceStorage {\n  struct Offer {\n    uint256 id;\n\n    IERC721Full store;\n    uint256 tokenId;\n\n    IERC20 currency;\n    uint256 price;\n\n    address seller;\n    address buyer;\n\n    uint createdAt;\n    uint purchasedAt;\n\n    bool active;\n  }\n\n  mapping(uint256 => Offer) public offers;\n  uint256[] public offerIds;\n}\n",
  "sourcePath": "contracts/MarketplaceStorage.sol",
  "abi": [
    {
      "constant": true,
      "inputs": [
        {
          "internalType": "uint256",
          "name": "",
          "type": "uint256"
        }
      ],
      "name": "offerIds",
      "outputs": [
        {
          "internalType": "uint256",
          "name": "",
          "type": "uint256"
        }
      ],
      "payable": false,
      "stateMutability": "view",
      "type": "function"
    },
    {
      "constant": true,
      "inputs": [
        {
          "internalType": "uint256",
          "name": "",
          "type": "uint256"
        }
      ],
      "name": "offers",
      "outputs": [
        {
          "internalType": "uint256",
          "name": "id",
          "type": "uint256"
        },
        {
          "internalType": "contract IERC721Full",
          "name": "store",
          "type": "address"
        },
        {
          "internalType": "uint256",
          "name": "tokenId",
          "type": "uint256"
        },
        {
          "internalType": "contract IERC20",
          "name": "currency",
          "type": "address"
        },
        {
          "internalType": "uint256",
          "name": "price",
          "type": "uint256"
        },
        {
          "internalType": "address",
          "name": "seller",
          "type": "address"
        },
        {
          "internalType": "address",
          "name": "buyer",
          "type": "address"
        },
        {
          "internalType": "uint256",
          "name": "createdAt",
          "type": "uint256"
        },
        {
          "internalType": "uint256",
          "name": "purchasedAt",
          "type": "uint256"
        },
        {
          "internalType": "bool",
          "name": "active",
          "type": "bool"
        }
      ],
      "payable": false,
      "stateMutability": "view",
      "type": "function"
    }
  ],
  "bytecode": "0x60806040523480156100115760006000fd5b50610017565b61030a806100266000396000f3fe60806040523480156100115760006000fd5b506004361061003b5760003560e01c8063110b9d89146100415780638a72ea6a146100845761003b565b60006000fd5b61006e600480360360208110156100585760006000fd5b81019080803590602001909291905050506101ba565b6040518082815260200191505060405180910390f35b6100b16004803603602081101561009b5760006000fd5b81019080803590602001909291905050506101e2565b604051808b81526020018a73ffffffffffffffffffffffffffffffffffffffff1673ffffffffffffffffffffffffffffffffffffffff1681526020018981526020018873ffffffffffffffffffffffffffffffffffffffff1673ffffffffffffffffffffffffffffffffffffffff1681526020018781526020018673ffffffffffffffffffffffffffffffffffffffff1673ffffffffffffffffffffffffffffffffffffffff1681526020018573ffffffffffffffffffffffffffffffffffffffff1673ffffffffffffffffffffffffffffffffffffffff168152602001848152602001838152602001821515151581526020019a505050505050505050505060405180910390f35b6001600050818154811015156101cc57fe5b906000526020600020900160005b915090505481565b60006000506020528060005260406000206000915090508060000160005054908060010160009054906101000a900473ffffffffffffffffffffffffffffffffffffffff16908060020160005054908060030160009054906101000a900473ffffffffffffffffffffffffffffffffffffffff16908060040160005054908060050160009054906101000a900473ffffffffffffffffffffffffffffffffffffffff16908060060160009054906101000a900473ffffffffffffffffffffffffffffffffffffffff16908060070160005054908060080160005054908060090160009054906101000a900460ff1690508a56fea265627a7a72315820d589b54b5542fff0fe8dae5fa5a9a6adb5c8b45b389dd10a55cefde1c1becf6c64736f6c634300050c0032",
  "compiler": {
    "name": "solc",
    "version": "0.5.12+commit.7709ece9.Emscripten.clang",
    "optimizer": {},
    "evmVersion": "constantinople"
  }
}