{
  "fileName": "Marketplace.sol",
  "contractName": "Marketplace",
  "source": "pragma solidity ^0.5.2;\n\nimport \"./MarketplaceStorage.sol\";\n\n// Import base Initializable contract\nimport \"@openzeppelin/upgrades/contracts/Initializable.sol\";\n\n// Import interface and library from OpenZeppelin contracts\nimport \"@openzeppelin/contracts-ethereum-package/contracts/token/ERC20/IERC20.sol\";\nimport \"@openzeppelin/contracts-ethereum-package/contracts/token/ERC721/IERC721Full.sol\";\n// TODO: add back\n// import \"@openzeppelin/contracts-ethereum-package/contracts/ownership/Ownable.sol\";\n// import \"@openzeppelin/contracts-ethereum-package/contracts/lifecycle/Pausable.sol\";\n\ncontract Marketplace is Initializable, MarketplaceStorage {\n  \n  event OfferCreated(\n    uint256 id,\n    IERC721Full store,\n    uint256 tokenId,\n    IERC20 currency,\n    uint256 price,\n    address seller,\n    uint createdAt,\n    bool active\n  );\n\n  event OfferPurchased(\n    uint256 id,\n    IERC721Full store,\n    uint256 tokenId,\n    IERC20 currency,\n    uint256 price,\n    address seller,\n    address buyer,\n    uint createdAt,\n    uint purchasedAt,\n    bool active\n  );\n\n  function initialize() public initializer {}\n\n  function numberOfOffers() public view returns (uint256) {\n    return offerIds.length;\n  }\n\n  function createOffer(address _store, uint256 _tokenId, address _currency, uint256 _price) public {\n    // TODO: check that _store is an ERC721 using ERC165.supportsInterface\n    // TODO: check that _currency is an ERC20\n    uint256 offerId = uint256(keccak256(abi.encodePacked(_store, _tokenId, _currency, _price, msg.sender, block.timestamp)));\n    // TODO: check that offerId doesn't already exist\n\n    // check\n    require(IERC721Full(_store).ownerOf(_tokenId) == msg.sender, \"erc721 item owner should be the creator of the offer\");\n    require(IERC721Full(_store).getApproved(_tokenId) == address(this), \"erc721 item does not approve the marketplace\");\n\n    // add\n    offers[offerId] = Offer({\n      id: offerId,\n      store: IERC721Full(_store),\n      tokenId: _tokenId,\n      currency: IERC20(_currency),\n      price: _price,\n      seller: msg.sender,\n      buyer: address(0),\n      createdAt: block.timestamp,\n      purchasedAt: 0,\n      active: true\n    });\n    offerIds.push(offerId);\n\n    // event\n    emit OfferCreated(offerId, IERC721Full(_store), _tokenId, IERC20(_currency), _price, msg.sender, block.timestamp, true);\n  }\n\n  function purchaseOffer(uint256 _offerId) public {\n    Offer storage offer = offers[_offerId];\n\n    // check\n    // TODO: check that offer exists\n    require(offer.active, \"offer is not active\");\n    require(offer.store.ownerOf(offer.tokenId) == offer.seller, \"owner of erc721 item is not the offer seller\");\n    require(offer.store.getApproved(offer.tokenId) == address(this), \"erc721 item does not approve the marketplace\");\n    require(offer.currency.balanceOf(msg.sender) >= offer.price, \"not enough erc20 token to pay the offer\");\n    require(offer.currency.allowance(msg.sender, address(this)) >= offer.price, \"marketplace allowance is not enough\");\n\n    // transfer\n    require(offer.currency.transferFrom(msg.sender, offer.seller, offer.price), \"payment failed\");\n    offer.store.safeTransferFrom(offer.seller, msg.sender, offer.tokenId);\n\n    // update\n    offer.buyer = msg.sender;\n    offer.active = false;\n    offer.purchasedAt = block.timestamp;\n\n    // event\n    emit OfferPurchased(offer.id, offer.store, offer.tokenId, offer.currency, offer.price, offer.seller, offer.buyer, offer.createdAt, offer.purchasedAt, offer.active);\n  }\n}\n",
  "sourcePath": "contracts/Marketplace.sol",
  "abi": [
    {
      "anonymous": false,
      "inputs": [
        {
          "indexed": false,
          "internalType": "uint256",
          "name": "id",
          "type": "uint256"
        },
        {
          "indexed": false,
          "internalType": "contract IERC721Full",
          "name": "store",
          "type": "address"
        },
        {
          "indexed": false,
          "internalType": "uint256",
          "name": "tokenId",
          "type": "uint256"
        },
        {
          "indexed": false,
          "internalType": "contract IERC20",
          "name": "currency",
          "type": "address"
        },
        {
          "indexed": false,
          "internalType": "uint256",
          "name": "price",
          "type": "uint256"
        },
        {
          "indexed": false,
          "internalType": "address",
          "name": "seller",
          "type": "address"
        },
        {
          "indexed": false,
          "internalType": "uint256",
          "name": "createdAt",
          "type": "uint256"
        },
        {
          "indexed": false,
          "internalType": "bool",
          "name": "active",
          "type": "bool"
        }
      ],
      "name": "OfferCreated",
      "type": "event"
    },
    {
      "anonymous": false,
      "inputs": [
        {
          "indexed": false,
          "internalType": "uint256",
          "name": "id",
          "type": "uint256"
        },
        {
          "indexed": false,
          "internalType": "contract IERC721Full",
          "name": "store",
          "type": "address"
        },
        {
          "indexed": false,
          "internalType": "uint256",
          "name": "tokenId",
          "type": "uint256"
        },
        {
          "indexed": false,
          "internalType": "contract IERC20",
          "name": "currency",
          "type": "address"
        },
        {
          "indexed": false,
          "internalType": "uint256",
          "name": "price",
          "type": "uint256"
        },
        {
          "indexed": false,
          "internalType": "address",
          "name": "seller",
          "type": "address"
        },
        {
          "indexed": false,
          "internalType": "address",
          "name": "buyer",
          "type": "address"
        },
        {
          "indexed": false,
          "internalType": "uint256",
          "name": "createdAt",
          "type": "uint256"
        },
        {
          "indexed": false,
          "internalType": "uint256",
          "name": "purchasedAt",
          "type": "uint256"
        },
        {
          "indexed": false,
          "internalType": "bool",
          "name": "active",
          "type": "bool"
        }
      ],
      "name": "OfferPurchased",
      "type": "event"
    },
    {
      "constant": false,
      "inputs": [
        {
          "internalType": "address",
          "name": "_store",
          "type": "address"
        },
        {
          "internalType": "uint256",
          "name": "_tokenId",
          "type": "uint256"
        },
        {
          "internalType": "address",
          "name": "_currency",
          "type": "address"
        },
        {
          "internalType": "uint256",
          "name": "_price",
          "type": "uint256"
        }
      ],
      "name": "createOffer",
      "outputs": [],
      "payable": false,
      "stateMutability": "nonpayable",
      "type": "function"
    },
    {
      "constant": false,
      "inputs": [],
      "name": "initialize",
      "outputs": [],
      "payable": false,
      "stateMutability": "nonpayable",
      "type": "function"
    },
    {
      "constant": true,
      "inputs": [],
      "name": "numberOfOffers",
      "outputs": [
        {
          "internalType": "uint256",
          "name": "",
          "type": "uint256"
        }
      ],
      "payable": false,
      "stateMutability": "view",
      "type": "function"
    },
    {
      "constant": true,
      "inputs": [
        {
          "internalType": "uint256",
          "name": "",
          "type": "uint256"
        }
      ],
      "name": "offerIds",
      "outputs": [
        {
          "internalType": "uint256",
          "name": "",
          "type": "uint256"
        }
      ],
      "payable": false,
      "stateMutability": "view",
      "type": "function"
    },
    {
      "constant": true,
      "inputs": [
        {
          "internalType": "uint256",
          "name": "",
          "type": "uint256"
        }
      ],
      "name": "offers",
      "outputs": [
        {
          "internalType": "uint256",
          "name": "id",
          "type": "uint256"
        },
        {
          "internalType": "contract IERC721Full",
          "name": "store",
          "type": "address"
        },
        {
          "internalType": "uint256",
          "name": "tokenId",
          "type": "uint256"
        },
        {
          "internalType": "contract IERC20",
          "name": "currency",
          "type": "address"
        },
        {
          "internalType": "uint256",
          "name": "price",
          "type": "uint256"
        },
        {
          "internalType": "address",
          "name": "seller",
          "type": "address"
        },
        {
          "internalType": "address",
          "name": "buyer",
          "type": "address"
        },
        {
          "internalType": "uint256",
          "name": "createdAt",
          "type": "uint256"
        },
        {
          "internalType": "uint256",
          "name": "purchasedAt",
          "type": "uint256"
        },
        {
          "internalType": "bool",
          "name": "active",
          "type": "bool"
        }
      ],
      "payable": false,
      "stateMutability": "view",
      "type": "function"
    },
    {
      "constant": false,
      "inputs": [
        {
          "internalType": "uint256",
          "name": "_offerId",
          "type": "uint256"
        }
      ],
      "name": "purchaseOffer",
      "outputs": [],
      "payable": false,
      "stateMutability": "nonpayable",
      "type": "function"
    }
  ],
  "bytecode": "0x60806040523480156100115760006000fd5b50610017565b611816806100266000396000f3fe60806040523480156100115760006000fd5b50600436106100675760003560e01c80630ce2e1531461006d578063110b9d891461009c5780633546f387146100df5780638129fc1c146100fd5780638a72ea6a14610107578063f24915281461023d57610067565b60006000fd5b61009a600480360360208110156100845760006000fd5b81019080803590602001909291905050506102b6565b005b6100c9600480360360208110156100b35760006000fd5b8101908080359060200190929190505050610dff565b6040518082815260200191505060405180910390f35b6100e7610e27565b6040518082815260200191505060405180910390f35b610105610e3c565b005b6101346004803603602081101561011e5760006000fd5b8101908080359060200190929190505050610f49565b604051808b81526020018a73ffffffffffffffffffffffffffffffffffffffff1673ffffffffffffffffffffffffffffffffffffffff1681526020018981526020018873ffffffffffffffffffffffffffffffffffffffff1673ffffffffffffffffffffffffffffffffffffffff1681526020018781526020018673ffffffffffffffffffffffffffffffffffffffff1673ffffffffffffffffffffffffffffffffffffffff1681526020018573ffffffffffffffffffffffffffffffffffffffff1673ffffffffffffffffffffffffffffffffffffffff168152602001848152602001838152602001821515151581526020019a505050505050505050505060405180910390f35b6102b4600480360360808110156102545760006000fd5b81019080803573ffffffffffffffffffffffffffffffffffffffff16906020019092919080359060200190929190803573ffffffffffffffffffffffffffffffffffffffff1690602001909291908035906020019092919050505061103c565b005b60006033600050600083815260200190815260200160002060005090508060090160009054906101000a900460ff16151561035c576040517f08c379a00000000000000000000000000000000000000000000000000000000081526004018080602001828103825260138152602001807f6f66666572206973206e6f74206163746976650000000000000000000000000081526020015060200191505060405180910390fd5b8060050160009054906101000a900473ffffffffffffffffffffffffffffffffffffffff1673ffffffffffffffffffffffffffffffffffffffff168160010160009054906101000a900473ffffffffffffffffffffffffffffffffffffffff1673ffffffffffffffffffffffffffffffffffffffff16636352211e83600201600050546040518263ffffffff1660e01b81526004018082815260200191505060206040518083038186803b1580156104145760006000fd5b505afa158015610429573d600060003e3d6000fd5b505050506040513d60208110156104405760006000fd5b810190808051906020019092919050505073ffffffffffffffffffffffffffffffffffffffff161415156104bf576040517f08c379a000000000000000000000000000000000000000000000000000000000815260040180806020018281038252602c815260200180611767602c913960400191505060405180910390fd5b3073ffffffffffffffffffffffffffffffffffffffff168160010160009054906101000a900473ffffffffffffffffffffffffffffffffffffffff1673ffffffffffffffffffffffffffffffffffffffff1663081812fc83600201600050546040518263ffffffff1660e01b81526004018082815260200191505060206040518083038186803b1580156105535760006000fd5b505afa158015610568573d600060003e3d6000fd5b505050506040513d602081101561057f5760006000fd5b810190808051906020019092919050505073ffffffffffffffffffffffffffffffffffffffff161415156105fe576040517f08c379a000000000000000000000000000000000000000000000000000000000815260040180806020018281038252602c8152602001806117b6602c913960400191505060405180910390fd5b80600401600050548160030160009054906101000a900473ffffffffffffffffffffffffffffffffffffffff1673ffffffffffffffffffffffffffffffffffffffff166370a08231336040518263ffffffff1660e01b8152600401808273ffffffffffffffffffffffffffffffffffffffff1673ffffffffffffffffffffffffffffffffffffffff16815260200191505060206040518083038186803b1580156106a85760006000fd5b505afa1580156106bd573d600060003e3d6000fd5b505050506040513d60208110156106d45760006000fd5b81019080805190602001909291905050501015151561073e576040517f08c379a00000000000000000000000000000000000000000000000000000000081526004018080602001828103825260278152602001806117126027913960400191505060405180910390fd5b80600401600050548160030160009054906101000a900473ffffffffffffffffffffffffffffffffffffffff1673ffffffffffffffffffffffffffffffffffffffff1663dd62ed3e33306040518363ffffffff1660e01b8152600401808373ffffffffffffffffffffffffffffffffffffffff1673ffffffffffffffffffffffffffffffffffffffff1681526020018273ffffffffffffffffffffffffffffffffffffffff1673ffffffffffffffffffffffffffffffffffffffff1681526020019250505060206040518083038186803b15801561081c5760006000fd5b505afa158015610831573d600060003e3d6000fd5b505050506040513d60208110156108485760006000fd5b8101908080519060200190929190505050101515156108b2576040517f08c379a00000000000000000000000000000000000000000000000000000000081526004018080602001828103825260238152602001806117936023913960400191505060405180910390fd5b8060030160009054906101000a900473ffffffffffffffffffffffffffffffffffffffff1673ffffffffffffffffffffffffffffffffffffffff166323b872dd338360050160009054906101000a900473ffffffffffffffffffffffffffffffffffffffff1684600401600050546040518463ffffffff1660e01b8152600401808473ffffffffffffffffffffffffffffffffffffffff1673ffffffffffffffffffffffffffffffffffffffff1681526020018373ffffffffffffffffffffffffffffffffffffffff1673ffffffffffffffffffffffffffffffffffffffff1681526020018281526020019350505050602060405180830381600087803b1580156109bd5760006000fd5b505af11580156109d2573d600060003e3d6000fd5b505050506040513d60208110156109e95760006000fd5b81019080805190602001909291905050501515610a71576040517f08c379a000000000000000000000000000000000000000000000000000000000815260040180806020018281038252600e8152602001807f7061796d656e74206661696c656400000000000000000000000000000000000081526020015060200191505060405180910390fd5b8060010160009054906101000a900473ffffffffffffffffffffffffffffffffffffffff1673ffffffffffffffffffffffffffffffffffffffff166342842e0e8260050160009054906101000a900473ffffffffffffffffffffffffffffffffffffffff163384600201600050546040518463ffffffff1660e01b8152600401808473ffffffffffffffffffffffffffffffffffffffff1673ffffffffffffffffffffffffffffffffffffffff1681526020018373ffffffffffffffffffffffffffffffffffffffff1673ffffffffffffffffffffffffffffffffffffffff1681526020018281526020019350505050600060405180830381600087803b158015610b7c5760006000fd5b505af1158015610b91573d600060003e3d6000fd5b50505050338160060160006101000a81548173ffffffffffffffffffffffffffffffffffffffff021916908373ffffffffffffffffffffffffffffffffffffffff16021790555060008160090160006101000a81548160ff02191690831515021790555042816008016000508190909055507f5cbaa960761b985f2a7b80996bec2269853fa77f0cde3433626e39ab5ed2b3de81600001600050548260010160009054906101000a900473ffffffffffffffffffffffffffffffffffffffff1683600201600050548460030160009054906101000a900473ffffffffffffffffffffffffffffffffffffffff1685600401600050548660050160009054906101000a900473ffffffffffffffffffffffffffffffffffffffff168760060160009054906101000a900473ffffffffffffffffffffffffffffffffffffffff16886007016000505489600801600050548a60090160009054906101000a900460ff16604051808b81526020018a73ffffffffffffffffffffffffffffffffffffffff1673ffffffffffffffffffffffffffffffffffffffff1681526020018981526020018873ffffffffffffffffffffffffffffffffffffffff1673ffffffffffffffffffffffffffffffffffffffff1681526020018781526020018673ffffffffffffffffffffffffffffffffffffffff1673ffffffffffffffffffffffffffffffffffffffff1681526020018573ffffffffffffffffffffffffffffffffffffffff1673ffffffffffffffffffffffffffffffffffffffff168152602001848152602001838152602001821515151581526020019a505050505050505050505060405180910390a1505b50565b603460005081815481101515610e1157fe5b906000526020600020900160005b915090505481565b60006034600050805490509050610e39565b90565b600060019054906101000a900460ff1680610e615750610e606116c563ffffffff16565b5b80610e795750600060009054906101000a900460ff16155b1515610ed0576040517f08c379a000000000000000000000000000000000000000000000000000000000815260040180806020018281038252602e815260200180611739602e913960400191505060405180910390fd5b6000600060019054906101000a900460ff161590508015610f22576001600060016101000a81548160ff0219169083151502179055506001600060006101000a81548160ff0219169083151502179055505b5b8015610f45576000600060016101000a81548160ff0219169083151502179055505b505b565b60336000506020528060005260406000206000915090508060000160005054908060010160009054906101000a900473ffffffffffffffffffffffffffffffffffffffff16908060020160005054908060030160009054906101000a900473ffffffffffffffffffffffffffffffffffffffff16908060040160005054908060050160009054906101000a900473ffffffffffffffffffffffffffffffffffffffff16908060060160009054906101000a900473ffffffffffffffffffffffffffffffffffffffff16908060070160005054908060080160005054908060090160009054906101000a900460ff1690508a565b6000848484843342604051602001808773ffffffffffffffffffffffffffffffffffffffff1673ffffffffffffffffffffffffffffffffffffffff1660601b81526014018681526020018573ffffffffffffffffffffffffffffffffffffffff1673ffffffffffffffffffffffffffffffffffffffff1660601b81526014018481526020018373ffffffffffffffffffffffffffffffffffffffff1673ffffffffffffffffffffffffffffffffffffffff1660601b815260140182815260200196505050505050506040516020818303038152906040528051906020012060001c90503373ffffffffffffffffffffffffffffffffffffffff168573ffffffffffffffffffffffffffffffffffffffff16636352211e866040518263ffffffff1660e01b81526004018082815260200191505060206040518083038186803b1580156111885760006000fd5b505afa15801561119d573d600060003e3d6000fd5b505050506040513d60208110156111b45760006000fd5b810190808051906020019092919050505073ffffffffffffffffffffffffffffffffffffffff16141515611233576040517f08c379a00000000000000000000000000000000000000000000000000000000081526004018080602001828103825260348152602001806116de6034913960400191505060405180910390fd5b3073ffffffffffffffffffffffffffffffffffffffff168573ffffffffffffffffffffffffffffffffffffffff1663081812fc866040518263ffffffff1660e01b81526004018082815260200191505060206040518083038186803b15801561129c5760006000fd5b505afa1580156112b1573d600060003e3d6000fd5b505050506040513d60208110156112c85760006000fd5b810190808051906020019092919050505073ffffffffffffffffffffffffffffffffffffffff16141515611347576040517f08c379a000000000000000000000000000000000000000000000000000000000815260040180806020018281038252602c8152602001806117b6602c913960400191505060405180910390fd5b6040518061014001604052808281526020018673ffffffffffffffffffffffffffffffffffffffff1681526020018581526020018473ffffffffffffffffffffffffffffffffffffffff1681526020018381526020013373ffffffffffffffffffffffffffffffffffffffff168152602001600073ffffffffffffffffffffffffffffffffffffffff16815260200142815260200160008152602001600115158152602001506033600050600083815260200190815260200160002060005060008201518160000160005090905560208201518160010160006101000a81548173ffffffffffffffffffffffffffffffffffffffff021916908373ffffffffffffffffffffffffffffffffffffffff16021790555060408201518160020160005090905560608201518160030160006101000a81548173ffffffffffffffffffffffffffffffffffffffff021916908373ffffffffffffffffffffffffffffffffffffffff16021790555060808201518160040160005090905560a08201518160050160006101000a81548173ffffffffffffffffffffffffffffffffffffffff021916908373ffffffffffffffffffffffffffffffffffffffff16021790555060c08201518160060160006101000a81548173ffffffffffffffffffffffffffffffffffffffff021916908373ffffffffffffffffffffffffffffffffffffffff16021790555060e082015181600701600050909055610100820151816008016000509090556101208201518160090160006101000a81548160ff02191690831515021790555090505060346000508190806001815401808255809150509060018203906000526020600020900160005b9091929091909150909055507fc72b8871c15697392ff93421e6aee7d9eb160bcde74b2f19030fc888c4023fdd818686868633426001604051808981526020018873ffffffffffffffffffffffffffffffffffffffff1673ffffffffffffffffffffffffffffffffffffffff1681526020018781526020018673ffffffffffffffffffffffffffffffffffffffff1673ffffffffffffffffffffffffffffffffffffffff1681526020018581526020018473ffffffffffffffffffffffffffffffffffffffff1673ffffffffffffffffffffffffffffffffffffffff168152602001838152602001821515151581526020019850505050505050505060405180910390a1505b50505050565b60006000303b9050600081149150506116da56505b9056fe657263373231206974656d206f776e65722073686f756c64206265207468652063726561746f72206f6620746865206f666665726e6f7420656e6f75676820657263323020746f6b656e20746f2070617920746865206f66666572436f6e747261637420696e7374616e63652068617320616c7265616479206265656e20696e697469616c697a65646f776e6572206f6620657263373231206974656d206973206e6f7420746865206f666665722073656c6c65726d61726b6574706c61636520616c6c6f77616e6365206973206e6f7420656e6f756768657263373231206974656d20646f6573206e6f7420617070726f766520746865206d61726b6574706c616365a265627a7a72315820fa8380cfc09ea38b8068800d909f8ab485617d9393da3507827a02b2ee81a49164736f6c634300050c0032",
  "compiler": {
    "name": "solc",
    "version": "0.5.12+commit.7709ece9.Emscripten.clang",
    "optimizer": {},
    "evmVersion": "constantinople"
  }
}