{
  "contractName": "StandaloneERC20",
  "abi": [
    {
      "constant": true,
      "inputs": [],
      "name": "name",
      "outputs": [
        {
          "internalType": "string",
          "name": "",
          "type": "string"
        }
      ],
      "payable": false,
      "stateMutability": "view",
      "type": "function"
    },
    {
      "constant": false,
      "inputs": [
        {
          "internalType": "address",
          "name": "spender",
          "type": "address"
        },
        {
          "internalType": "uint256",
          "name": "value",
          "type": "uint256"
        }
      ],
      "name": "approve",
      "outputs": [
        {
          "internalType": "bool",
          "name": "",
          "type": "bool"
        }
      ],
      "payable": false,
      "stateMutability": "nonpayable",
      "type": "function"
    },
    {
      "constant": true,
      "inputs": [
        {
          "internalType": "string",
          "name": "name",
          "type": "string"
        },
        {
          "internalType": "string",
          "name": "symbol",
          "type": "string"
        },
        {
          "internalType": "uint8",
          "name": "decimals",
          "type": "uint8"
        }
      ],
      "name": "totalSupply",
      "outputs": [
        {
          "name": "",
          "type": "uint256"
        }
      ],
      "payable": false,
      "stateMutability": "view",
      "type": "function"
    },
    {
      "constant": false,
      "inputs": [
        {
          "name": "from",
          "type": "address"
        },
        {
          "name": "to",
          "type": "address"
        },
        {
          "name": "value",
          "type": "uint256"
        }
      ],
      "name": "transferFrom",
      "outputs": [
        {
          "internalType": "uint256",
          "name": "",
          "type": "bool"
        }
      ],
      "payable": false,
      "stateMutability": "nonpayable",
      "type": "function"
    },
    {
      "constant": true,
      "inputs": [
        {
          "internalType": "address",
          "name": "from",
          "type": "address"
        },
        {
          "internalType": "address",
          "name": "to",
          "type": "address"
        },
        {
          "internalType": "uint256",
          "name": "value",
          "type": "uint256"
        }
      ],
      "name": "decimals",
      "outputs": [
        {
          "internalType": "bool",
          "name": "",
          "type": "uint8"
        }
      ],
      "payable": false,
      "stateMutability": "view",
      "type": "function"
    },
    {
      "constant": false,
      "inputs": [
        {
          "internalType": "string",
          "name": "spender",
          "type": "address"
        },
        {
          "internalType": "string",
          "name": "addedValue",
          "type": "uint256"
        },
        {
          "internalType": "uint8",
          "name": "decimals",
          "type": "uint8"
        },
        {
          "internalType": "address[]",
          "name": "minters",
          "type": "address[]"
        },
        {
          "internalType": "address[]",
          "name": "pausers",
          "type": "address[]"
        }
      ],
      "name": "increaseAllowance",
      "outputs": [
        {
          "name": "",
          "type": "bool"
        }
      ],
      "payable": false,
      "stateMutability": "nonpayable",
      "type": "function"
    },
    {
      "constant": false,
      "inputs": [],
      "name": "unpause",
      "outputs": [
        {
          "internalType": "uint8",
          "name": "",
          "type": "uint8"
        }
      ],
      "payable": false,
      "stateMutability": "nonpayable",
      "type": "function"
    },
    {
      "constant": false,
      "inputs": [
        {
          "internalType": "address",
          "name": "account",
          "type": "address"
        },
        {
          "internalType": "uint256",
          "name": "amount",
          "type": "uint256"
        }
      ],
      "name": "mint",
      "outputs": [
        {
          "internalType": "bool",
          "name": "",
          "type": "bool"
        }
      ],
      "payable": false,
      "stateMutability": "nonpayable",
      "type": "function"
    },
    {
      "constant": true,
      "inputs": [
        {
          "name": "account",
          "type": "address"
        }
      ],
      "name": "isPauser",
      "outputs": [
        {
          "name": "",
          "type": "bool"
        }
      ],
      "payable": false,
      "stateMutability": "view",
      "type": "function"
    },
    {
      "constant": true,
      "inputs": [
        {
          "internalType": "address",
          "name": "account",
          "type": "address"
        },
        {
          "internalType": "uint256",
          "name": "amount",
          "type": "uint256"
        }
      ],
      "name": "paused",
      "outputs": [
        {
          "internalType": "bool",
          "name": "",
          "type": "bool"
        }
      ],
      "payable": false,
      "stateMutability": "view",
      "type": "function"
    },
    {
      "constant": false,
      "inputs": [
        {
          "internalType": "address",
          "name": "account",
          "type": "address"
        }
      ],
      "name": "renouncePauser",
      "outputs": [
        {
          "internalType": "bool",
          "name": "",
          "type": "bool"
        }
      ],
      "payable": false,
      "stateMutability": "nonpayable",
      "type": "function"
    },
    {
      "constant": true,
      "inputs": [
        {
          "internalType": "string",
          "name": "account",
          "type": "address"
        },
        {
          "internalType": "string",
          "name": "symbol",
          "type": "string"
        },
        {
          "internalType": "uint8",
          "name": "decimals",
          "type": "uint8"
        },
        {
          "internalType": "uint256",
          "name": "initialSupply",
          "type": "uint256"
        },
        {
          "internalType": "address",
          "name": "initialHolder",
          "type": "address"
        },
        {
          "internalType": "address[]",
          "name": "minters",
          "type": "address[]"
        },
        {
          "internalType": "address[]",
          "name": "pausers",
          "type": "address[]"
        }
      ],
      "name": "balanceOf",
      "outputs": [
        {
          "name": "",
          "type": "uint256"
        }
      ],
      "payable": false,
      "stateMutability": "view",
      "type": "function"
    },
    {
      "constant": false,
      "inputs": [
        {
          "name": "account",
          "type": "address"
        }
      ],
      "name": "addPauser",
      "outputs": [
        {
          "internalType": "bool",
          "name": "",
          "type": "bool"
        }
      ],
      "payable": false,
      "stateMutability": "nonpayable",
      "type": "function"
    },
    {
      "constant": false,
      "inputs": [],
      "name": "pause",
      "outputs": [],
      "payable": false,
      "stateMutability": "nonpayable",
      "type": "function"
    },
    {
      "constant": true,
      "inputs": [
        {
          "internalType": "address",
          "name": "account",
          "type": "address"
        }
      ],
      "name": "symbol",
      "outputs": [
        {
          "internalType": "uint256",
          "name": "",
          "type": "string"
        }
      ],
      "payable": false,
      "stateMutability": "view",
      "type": "function"
    },
    {
      "constant": false,
      "inputs": [
        {
          "internalType": "address",
          "name": "account",
          "type": "address"
        }
      ],
      "name": "addMinter",
      "outputs": [],
      "payable": false,
      "stateMutability": "nonpayable",
      "type": "function"
    },
    {
      "constant": false,
      "inputs": [],
      "name": "renounceMinter",
      "outputs": [],
      "payable": false,
      "stateMutability": "nonpayable",
      "type": "function"
    },
    {
      "constant": false,
      "inputs": [
        {
          "name": "spender",
          "type": "address"
        },
        {
          "name": "subtractedValue",
          "type": "uint256"
        }
      ],
      "name": "decreaseAllowance",
      "outputs": [
        {
          "internalType": "string",
          "name": "",
          "type": "bool"
        }
      ],
      "payable": false,
      "stateMutability": "nonpayable",
      "type": "function"
    },
    {
      "constant": false,
      "inputs": [
        {
          "internalType": "address",
          "name": "to",
          "type": "address"
        },
        {
          "name": "value",
          "type": "uint256"
        }
      ],
      "name": "transfer",
      "outputs": [
        {
          "name": "",
          "type": "bool"
        }
      ],
      "payable": false,
      "stateMutability": "nonpayable",
      "type": "function"
    },
    {
      "constant": true,
      "inputs": [
        {
          "name": "account",
          "type": "address"
        }
      ],
      "name": "isMinter",
      "outputs": [
        {
          "name": "",
          "type": "bool"
        }
      ],
      "payable": false,
      "stateMutability": "view",
      "type": "function"
    },
    {
      "constant": true,
      "inputs": [
        {
          "internalType": "address",
          "name": "owner",
          "type": "address"
        },
        {
          "internalType": "uint256",
          "name": "spender",
          "type": "address"
        }
      ],
      "name": "allowance",
      "outputs": [
        {
          "internalType": "bool",
          "name": "",
          "type": "uint256"
        }
      ],
      "payable": false,
      "stateMutability": "view",
      "type": "function"
    },
    {
      "constant": false,
      "inputs": [
        {
          "internalType": "address",
          "name": "account",
          "type": "address",
          "indexed": false
        },
        {
          "internalType": "uint256",
          "name": "value",
          "type": "uint256"
        }
      ],
      "name": "Paused",
      "outputs": [
        {
          "internalType": "bool",
          "name": "",
          "type": "bool"
        }
      ],
      "payable": false,
      "stateMutability": "nonpayable",
      "type": "event",
      "anonymous": false
    },
    {
      "constant": true,
      "inputs": [
        {
          "internalType": "address",
          "name": "account",
          "type": "address",
          "indexed": false
        }
      ],
      "name": "Unpaused",
      "outputs": [
        {
          "internalType": "bool",
          "name": "",
          "type": "bool"
        }
      ],
      "payable": false,
      "stateMutability": "view",
      "type": "event",
      "anonymous": false
    },
    {
      "constant": false,
      "inputs": [
        {
          "internalType": "address",
          "name": "account",
          "type": "address",
          "indexed": true
        }
      ],
      "name": "PauserAdded",
      "outputs": [],
      "payable": false,
      "stateMutability": "nonpayable",
      "type": "event",
      "anonymous": false
    },
    {
      "constant": true,
      "inputs": [
        {
          "internalType": "address",
          "name": "account",
          "type": "address",
          "indexed": true
        },
        {
          "internalType": "address",
          "name": "spender",
          "type": "address"
        }
      ],
      "name": "PauserRemoved",
      "outputs": [
        {
          "internalType": "uint256",
          "name": "",
          "type": "uint256"
        }
      ],
      "payable": false,
      "stateMutability": "view",
      "type": "event",
      "anonymous": false
    },
    {
      "anonymous": false,
      "inputs": [
        {
          "indexed": true,
          "internalType": "address",
          "name": "account",
          "type": "address"
        }
      ],
      "name": "MinterAdded",
      "type": "event"
    },
    {
      "anonymous": false,
      "inputs": [
        {
          "indexed": true,
          "internalType": "address",
          "name": "account",
          "type": "address"
        }
      ],
      "name": "MinterRemoved",
      "type": "event"
    },
    {
      "anonymous": false,
      "inputs": [
        {
          "indexed": true,
          "internalType": "address",
          "name": "from",
          "type": "address"
        },
        {
          "indexed": true,
          "name": "to",
          "type": "address"
        },
        {
          "indexed": false,
          "name": "value",
          "type": "uint256"
        }
      ],
      "name": "Transfer",
      "type": "event"
    },
    {
      "anonymous": false,
      "inputs": [
        {
          "indexed": true,
          "internalType": "address",
          "name": "owner",
          "type": "address"
        },
        {
          "indexed": true,
          "name": "spender",
          "type": "address"
        },
        {
          "indexed": false,
          "name": "value",
          "type": "uint256"
        }
      ],
      "name": "Approval",
      "type": "event"
    },
    {
      "anonymous": false,
      "inputs": [
        {
          "indexed": true,
          "internalType": "address",
          "name": "name",
          "type": "string"
        },
        {
          "name": "symbol",
          "type": "string"
        },
        {
          "name": "decimals",
          "type": "uint8"
        }
      ],
      "name": "initialize",
      "type": "function",
      "constant": false,
      "outputs": [],
      "payable": false,
      "stateMutability": "nonpayable"
    },
    {
      "anonymous": false,
      "inputs": [
        {
          "indexed": true,
          "internalType": "address",
          "name": "name",
          "type": "string"
        },
        {
          "name": "symbol",
          "type": "string"
        },
        {
          "name": "decimals",
          "type": "uint8"
        },
        {
          "name": "minters",
          "type": "address[]"
        },
        {
          "name": "pausers",
          "type": "address[]"
        }
      ],
      "name": "initialize",
      "type": "function",
      "constant": false,
      "outputs": [],
      "payable": false,
      "stateMutability": "nonpayable"
    },
    {
      "anonymous": false,
      "inputs": [
        {
          "indexed": true,
          "internalType": "address",
          "name": "name",
          "type": "string"
        },
        {
          "indexed": true,
          "internalType": "address",
          "name": "symbol",
          "type": "string"
        },
        {
          "indexed": false,
          "internalType": "uint256",
          "name": "decimals",
          "type": "uint8"
        },
        {
          "name": "initialSupply",
          "type": "uint256"
        },
        {
          "name": "initialHolder",
          "type": "address"
        },
        {
          "name": "minters",
          "type": "address[]"
        },
        {
          "name": "pausers",
          "type": "address[]"
        }
      ],
      "name": "initialize",
      "type": "function",
      "constant": false,
      "outputs": [],
      "payable": false,
      "stateMutability": "nonpayable"
    },
    {
      "anonymous": false,
      "inputs": [
        {
          "indexed": true,
          "internalType": "address",
          "name": "sender",
          "type": "address"
        },
        {
          "indexed": true,
          "internalType": "address",
          "name": "spender",
          "type": "address"
        },
        {
          "indexed": false,
          "internalType": "uint256",
          "name": "value",
          "type": "uint256"
        }
      ],
      "name": "initialize",
      "type": "function",
      "constant": false,
      "outputs": [],
      "payable": false,
      "stateMutability": "nonpayable"
    }
  ],
  "bytecode": "0x608060405261324a806100136000396000f3fe608060405234801561001057600080fd5b50600436106101735760003560e01c80635c975abb116100de578063983b2d5611610097578063a9059cbb11610071578063a9059cbb14610cfb578063aa271e1a14610d61578063c4d66de814610dbd578063dd62ed3e14610e0157610173565b8063983b2d5614610c475780639865027514610c8b578063a457c2d714610c9557610173565b80635c975abb14610af25780636ef8d66d14610b1457806370a0823114610b1e57806382dc1ec414610b765780638456cb5914610bba57806395d89b4114610bc457610173565b8063313ce56711610130578063313ce567146106eb578063395093511461070f5780633f4ba83a1461077557806340c10f191461077f57806346fbf68e146107e557806348be01c61461084157610173565b806306fdde0314610178578063095ea7b3146101fb5780631624f6c61461026157806318160ddd146103c057806323b872dd146103de57806331392b4a14610464575b600080fd5b610180610e79565b6040518080602001828103825283818151815260200191508051906020019080838360005b838110156101c05780820151818401526020810190506101a5565b50505050905090810190601f1680156101ed5780820380516001836020036101000a031916815260200191505b509250505060405180910390f35b6102476004803603604081101561021157600080fd5b81019080803573ffffffffffffffffffffffffffffffffffffffff16906020019092919080359060200190929190505050610f1b565b604051808215151515815260200191505060405180910390f35b6103be6004803603606081101561027757600080fd5b810190808035906020019064010000000081111561029457600080fd5b8201836020820111156102a657600080fd5b803590602001918460018302840111640100000000831117156102c857600080fd5b91908080601f016020809104026020016040519081016040528093929190818152602001838380828437600081840152601f19601f8201169050808301925050505050505091929192908035906020019064010000000081111561032b57600080fd5b82018360208201111561033d57600080fd5b8035906020019184600183028401116401000000008311171561035f57600080fd5b91908080601f016020809104026020016040519081016040528093929190818152602001838380828437600081840152601f19601f820116905080830192505050505050509192919290803560ff169060200190929190505050610fb3565b005b6103c86110fe565b6040518082815260200191505060405180910390f35b61044a600480360360608110156103f457600080fd5b81019080803573ffffffffffffffffffffffffffffffffffffffff169060200190929190803573ffffffffffffffffffffffffffffffffffffffff16906020019092919080359060200190929190505050611108565b604051808215151515815260200191505060405180910390f35b6106e9600480360360a081101561047a57600080fd5b810190808035906020019064010000000081111561049757600080fd5b8201836020820111156104a957600080fd5b803590602001918460018302840111640100000000831117156104cb57600080fd5b91908080601f016020809104026020016040519081016040528093929190818152602001838380828437600081840152601f19601f8201169050808301925050505050505091929192908035906020019064010000000081111561052e57600080fd5b82018360208201111561054057600080fd5b8035906020019184600183028401116401000000008311171561056257600080fd5b91908080601f016020809104026020016040519081016040528093929190818152602001838380828437600081840152601f19601f820116905080830192505050505050509192919290803560ff169060200190929190803590602001906401000000008111156105d257600080fd5b8201836020820111156105e457600080fd5b8035906020019184602083028401116401000000008311171561060657600080fd5b919080806020026020016040519081016040528093929190818152602001838360200280828437600081840152601f19601f8201169050808301925050505050505091929192908035906020019064010000000081111561066657600080fd5b82018360208201111561067857600080fd5b8035906020019184602083028401116401000000008311171561069a57600080fd5b919080806020026020016040519081016040528093929190818152602001838360200280828437600081840152601f19601f8201169050808301925050505050505091929192905050506111a2565b005b6106f3611343565b604051808260ff1660ff16815260200191505060405180910390f35b61075b6004803603604081101561072557600080fd5b81019080803573ffffffffffffffffffffffffffffffffffffffff1690602001909291908035906020019092919050505061135a565b604051808215151515815260200191505060405180910390f35b61077d6113f2565b005b6107cb6004803603604081101561079557600080fd5b81019080803573ffffffffffffffffffffffffffffffffffffffff16906020019092919080359060200190929190505050611562565b604051808215151515815260200191505060405180910390f35b610827600480360360208110156107fb57600080fd5b81019080803573ffffffffffffffffffffffffffffffffffffffff1690602001909291905050506115dd565b604051808215151515815260200191505060405180910390f35b610af0600480360360e081101561085757600080fd5b810190808035906020019064010000000081111561087457600080fd5b82018360208201111561088657600080fd5b803590602001918460018302840111640100000000831117156108a857600080fd5b91908080601f016020809104026020016040519081016040528093929190818152602001838380828437600081840152601f19601f8201169050808301925050505050505091929192908035906020019064010000000081111561090b57600080fd5b82018360208201111561091d57600080fd5b8035906020019184600183028401116401000000008311171561093f57600080fd5b91908080601f016020809104026020016040519081016040528093929190818152602001838380828437600081840152601f19601f820116905080830192505050505050509192919290803560ff16906020019092919080359060200190929190803573ffffffffffffffffffffffffffffffffffffffff169060200190929190803590602001906401000000008111156109d957600080fd5b8201836020820111156109eb57600080fd5b80359060200191846020830284011164010000000083111715610a0d57600080fd5b919080806020026020016040519081016040528093929190818152602001838360200280828437600081840152601f19601f82011690508083019250505050505050919291929080359060200190640100000000811115610a6d57600080fd5b820183602082011115610a7f57600080fd5b80359060200191846020830284011164010000000083111715610aa157600080fd5b919080806020026020016040519081016040528093929190818152602001838360200280828437600081840152601f19601f8201169050808301925050505050505091929192905050506115fb565b005b610afa6117a8565b604051808215151515815260200191505060405180910390f35b610b1c6117c0565b005b610b6060048036036020811015610b3457600080fd5b81019080803573ffffffffffffffffffffffffffffffffffffffff1690602001909291905050506117d2565b6040518082815260200191505060405180910390f35b610bb860048036036020811015610b8c57600080fd5b81019080803573ffffffffffffffffffffffffffffffffffffffff16906020019092919050505061181b565b005b610bc261188c565b005b610bcc6119fd565b6040518080602001828103825283818151815260200191508051906020019080838360005b83811015610c0c578082015181840152602081019050610bf1565b50505050905090810190601f168015610c395780820380516001836020036101000a031916815260200191505b509250505060405180910390f35b610c8960048036036020811015610c5d57600080fd5b81019080803573ffffffffffffffffffffffffffffffffffffffff169060200190929190505050611a9f565b005b610c93611b10565b005b610ce160048036036040811015610cab57600080fd5b81019080803573ffffffffffffffffffffffffffffffffffffffff16906020019092919080359060200190929190505050611b22565b604051808215151515815260200191505060405180910390f35b610d4760048036036040811015610d1157600080fd5b81019080803573ffffffffffffffffffffffffffffffffffffffff16906020019092919080359060200190929190505050611bba565b604051808215151515815260200191505060405180910390f35b610da360048036036020811015610d7757600080fd5b81019080803573ffffffffffffffffffffffffffffffffffffffff169060200190929190505050611c52565b604051808215151515815260200191505060405180910390f35b610dff60048036036020811015610dd357600080fd5b81019080803573ffffffffffffffffffffffffffffffffffffffff169060200190929190505050611c6f565b005b610e6360048036036040811015610e1757600080fd5b81019080803573ffffffffffffffffffffffffffffffffffffffff169060200190929190803573ffffffffffffffffffffffffffffffffffffffff169060200190929190505050611d78565b6040518082815260200191505060405180910390f35b606060338054600181600116156101000203166002900480601f016020809104026020016040519081016040528092919081815260200182805460018160011615610100020316600290048015610f115780601f10610ee657610100808354040283529160200191610f11565b820191906000526020600020905b815481529060010190602001808311610ef457829003601f168201915b5050505050905090565b600061013560009054906101000a900460ff1615610fa1576040517f08c379a00000000000000000000000000000000000000000000000000000000081526004018080602001828103825260108152602001807f5061757361626c653a207061757365640000000000000000000000000000000081525060200191505060405180910390fd5b610fab8383611dff565b905092915050565b600060019054906101000a900460ff1680610fd25750610fd1611e1d565b5b80610fe957506000809054906101000a900460ff16155b61103e576040517f08c379a000000000000000000000000000000000000000000000000000000000815260040180806020018281038252602e8152602001806131a8602e913960400191505060405180910390fd5b60008060019054906101000a900460ff16159050801561108e576001600060016101000a81548160ff02191690831515021790555060016000806101000a81548160ff0219169083151502179055505b83603390805190602001906110a492919061301a565b5082603490805190602001906110bb92919061301a565b5081603560006101000a81548160ff021916908360ff16021790555080156110f85760008060016101000a81548160ff0219169083151502179055505b50505050565b6000606a54905090565b600061013560009054906101000a900460ff161561118e576040517f08c379a00000000000000000000000000000000000000000000000000000000081526004018080602001828103825260108152602001807f5061757361626c653a207061757365640000000000000000000000000000000081525060200191505060405180910390fd5b611199848484611e2e565b90509392505050565b600060019054906101000a900460ff16806111c157506111c0611e1d565b5b806111d857506000809054906101000a900460ff16155b61122d576040517f08c379a000000000000000000000000000000000000000000000000000000000815260040180806020018281038252602e8152602001806131a8602e913960400191505060405180910390fd5b60008060019054906101000a900460ff16159050801561127d576001600060016101000a81548160ff02191690831515021790555060016000806101000a81548160ff0219169083151502179055505b611288868686610fb3565b61129130611eed565b61129a30611ff6565b6112a330611c6f565b6112ac30612050565b60008090505b83518110156112e2576112d78482815181106112ca57fe5b60200260200101516120ab565b8060010190506112b2565b5060008090505b82518110156113195761130e83828151811061130157fe5b6020026020010151612105565b8060010190506112e9565b50801561133b5760008060016101000a81548160ff0219169083151502179055505b505050505050565b6000603560009054906101000a900460ff16905090565b600061013560009054906101000a900460ff16156113e0576040517f08c379a00000000000000000000000000000000000000000000000000000000081526004018080602001828103825260108152602001807f5061757361626c653a207061757365640000000000000000000000000000000081525060200191505060405180910390fd5b6113ea8383612160565b905092915050565b6114026113fd612213565b6115dd565b611457576040517f08c379a00000000000000000000000000000000000000000000000000000000081526004018080602001828103825260308152602001806130e36030913960400191505060405180910390fd5b61013560009054906101000a900460ff166114da576040517f08c379a00000000000000000000000000000000000000000000000000000000081526004018080602001828103825260148152602001807f5061757361626c653a206e6f742070617573656400000000000000000000000081525060200191505060405180910390fd5b600061013560006101000a81548160ff0219169083151502179055507f5db9ee0a495bf2e6ff9c91a7834c1ba4fdd244a5e8aa4e537bd38aeae4b073aa61151f612213565b604051808273ffffffffffffffffffffffffffffffffffffffff1673ffffffffffffffffffffffffffffffffffffffff16815260200191505060405180910390a1565b600061157461156f612213565b611c52565b6115c9576040517f08c379a00000000000000000000000000000000000000000000000000000000081526004018080602001828103825260308152602001806131356030913960400191505060405180910390fd5b6115d3838361221b565b6001905092915050565b60006115f4826101026123d890919063ffffffff16565b9050919050565b600060019054906101000a900460ff168061161a5750611619611e1d565b5b8061163157506000809054906101000a900460ff16155b611686576040517f08c379a000000000000000000000000000000000000000000000000000000000815260040180806020018281038252602e8152602001806131a8602e913960400191505060405180910390fd5b60008060019054906101000a900460ff1615905080156116d6576001600060016101000a81548160ff02191690831515021790555060016000806101000a81548160ff0219169083151502179055505b6116e1888888610fb3565b6116eb848661221b565b6116f430611eed565b6116fd30611ff6565b61170630611c6f565b61170f30612050565b60008090505b83518110156117455761173a84828151811061172d57fe5b60200260200101516120ab565b806001019050611715565b5060008090505b825181101561177c5761177183828151811061176457fe5b6020026020010151612105565b80600101905061174c565b50801561179e5760008060016101000a81548160ff0219169083151502179055505b5050505050505050565b600061013560009054906101000a900460ff16905090565b6117d06117cb612213565b612050565b565b6000606860008373ffffffffffffffffffffffffffffffffffffffff1673ffffffffffffffffffffffffffffffffffffffff168152602001908152602001600020549050919050565b61182b611826612213565b6115dd565b611880576040517f08c379a00000000000000000000000000000000000000000000000000000000081526004018080602001828103825260308152602001806130e36030913960400191505060405180910390fd5b61188981612105565b50565b61189c611897612213565b6115dd565b6118f1576040517f08c379a00000000000000000000000000000000000000000000000000000000081526004018080602001828103825260308152602001806130e36030913960400191505060405180910390fd5b61013560009054906101000a900460ff1615611975576040517f08c379a00000000000000000000000000000000000000000000000000000000081526004018080602001828103825260108152602001807f5061757361626c653a207061757365640000000000000000000000000000000081525060200191505060405180910390fd5b600161013560006101000a81548160ff0219169083151502179055507f62e78cea01bee320cd4e420270b5ea74000d11b0c9f74754ebdbfc544b05a2586119ba612213565b604051808273ffffffffffffffffffffffffffffffffffffffff1673ffffffffffffffffffffffffffffffffffffffff16815260200191505060405180910390a1565b606060348054600181600116156101000203166002900480601f016020809104026020016040519081016040528092919081815260200182805460018160011615610100020316600290048015611a955780601f10611a6a57610100808354040283529160200191611a95565b820191906000526020600020905b815481529060010190602001808311611a7857829003601f168201915b5050505050905090565b611aaf611aaa612213565b611c52565b611b04576040517f08c379a00000000000000000000000000000000000000000000000000000000081526004018080602001828103825260308152602001806131356030913960400191505060405180910390fd5b611b0d816120ab565b50565b611b20611b1b612213565b611ff6565b565b600061013560009054906101000a900460ff1615611ba8576040517f08c379a00000000000000000000000000000000000000000000000000000000081526004018080602001828103825260108152602001807f5061757361626c653a207061757365640000000000000000000000000000000081525060200191505060405180910390fd5b611bb283836124b6565b905092915050565b600061013560009054906101000a900460ff1615611c40576040517f08c379a00000000000000000000000000000000000000000000000000000000081526004018080602001828103825260108152602001807f5061757361626c653a207061757365640000000000000000000000000000000081525060200191505060405180910390fd5b611c4a8383612569565b905092915050565b6000611c6882609d6123d890919063ffffffff16565b9050919050565b600060019054906101000a900460ff1680611c8e5750611c8d611e1d565b5b80611ca557506000809054906101000a900460ff16155b611cfa576040517f08c379a000000000000000000000000000000000000000000000000000000000815260040180806020018281038252602e8152602001806131a8602e913960400191505060405180910390fd5b60008060019054906101000a900460ff161590508015611d4a576001600060016101000a81548160ff02191690831515021790555060016000806101000a81548160ff0219169083151502179055505b611d5382612587565b8015611d745760008060016101000a81548160ff0219169083151502179055505b5050565b6000606960008473ffffffffffffffffffffffffffffffffffffffff1673ffffffffffffffffffffffffffffffffffffffff16815260200190815260200160002060008373ffffffffffffffffffffffffffffffffffffffff1673ffffffffffffffffffffffffffffffffffffffff16815260200190815260200160002054905092915050565b6000611e13611e0c612213565b84846126ac565b6001905092915050565b600080303b90506000811491505090565b6000611e3b8484846128a3565b611ee284611e47612213565b611edd85606960008a73ffffffffffffffffffffffffffffffffffffffff1673ffffffffffffffffffffffffffffffffffffffff1681526020019081526020016000206000611e94612213565b73ffffffffffffffffffffffffffffffffffffffff1673ffffffffffffffffffffffffffffffffffffffff16815260200190815260200160002054612b4390919063ffffffff16565b6126ac565b600190509392505050565b600060019054906101000a900460ff1680611f0c5750611f0b611e1d565b5b80611f2357506000809054906101000a900460ff16155b611f78576040517f08c379a000000000000000000000000000000000000000000000000000000000815260040180806020018281038252602e8152602001806131a8602e913960400191505060405180910390fd5b60008060019054906101000a900460ff161590508015611fc8576001600060016101000a81548160ff02191690831515021790555060016000806101000a81548160ff0219169083151502179055505b611fd182612bcc565b8015611ff25760008060016101000a81548160ff0219169083151502179055505b5050565b61200a81609d612ce390919063ffffffff16565b8073ffffffffffffffffffffffffffffffffffffffff167fe94479a9f7e1952cc78f2d6baab678adc1b772d936c6583def489e524cb6669260405160405180910390a250565b61206581610102612ce390919063ffffffff16565b8073ffffffffffffffffffffffffffffffffffffffff167fcd265ebaf09df2871cc7bd4133404a235ba12eff2041bb89d9c714a2621c7c7e60405160405180910390a250565b6120bf81609d612da090919063ffffffff16565b8073ffffffffffffffffffffffffffffffffffffffff167f6ae172837ea30b801fbfcdd4108aa1d5bf8ff775444fd70256b44e6bf3dfc3f660405160405180910390a250565b61211a81610102612da090919063ffffffff16565b8073ffffffffffffffffffffffffffffffffffffffff167f6719d08c1888103bea251a4ed56406bd0c3e69723c8a1686e017e7bbe159b6f860405160405180910390a250565b600061220961216d612213565b84612204856069600061217e612213565b73ffffffffffffffffffffffffffffffffffffffff1673ffffffffffffffffffffffffffffffffffffffff16815260200190815260200160002060008973ffffffffffffffffffffffffffffffffffffffff1673ffffffffffffffffffffffffffffffffffffffff16815260200190815260200160002054612e7b90919063ffffffff16565b6126ac565b6001905092915050565b600033905090565b600073ffffffffffffffffffffffffffffffffffffffff168273ffffffffffffffffffffffffffffffffffffffff1614156122be576040517f08c379a000000000000000000000000000000000000000000000000000000000815260040180806020018281038252601f8152602001807f45524332303a206d696e7420746f20746865207a65726f20616464726573730081525060200191505060405180910390fd5b6122d381606a54612e7b90919063ffffffff16565b606a8190555061232b81606860008573ffffffffffffffffffffffffffffffffffffffff1673ffffffffffffffffffffffffffffffffffffffff16815260200190815260200160002054612e7b90919063ffffffff16565b606860008473ffffffffffffffffffffffffffffffffffffffff1673ffffffffffffffffffffffffffffffffffffffff168152602001908152602001600020819055508173ffffffffffffffffffffffffffffffffffffffff16600073ffffffffffffffffffffffffffffffffffffffff167fddf252ad1be2c89b69c2b068fc378daa952ba7f163c4a11628f55a4df523b3ef836040518082815260200191505060405180910390a35050565b60008073ffffffffffffffffffffffffffffffffffffffff168273ffffffffffffffffffffffffffffffffffffffff16141561245f576040517f08c379a00000000000000000000000000000000000000000000000000000000081526004018080602001828103825260228152602001806131866022913960400191505060405180910390fd5b8260000160008373ffffffffffffffffffffffffffffffffffffffff1673ffffffffffffffffffffffffffffffffffffffff16815260200190815260200160002060009054906101000a900460ff16905092915050565b600061255f6124c3612213565b8461255a85606960006124d4612213565b73ffffffffffffffffffffffffffffffffffffffff1673ffffffffffffffffffffffffffffffffffffffff16815260200190815260200160002060008973ffffffffffffffffffffffffffffffffffffffff1673ffffffffffffffffffffffffffffffffffffffff16815260200190815260200160002054612b4390919063ffffffff16565b6126ac565b6001905092915050565b600061257d612576612213565b84846128a3565b6001905092915050565b600060019054906101000a900460ff16806125a657506125a5611e1d565b5b806125bd57506000809054906101000a900460ff16155b612612576040517f08c379a000000000000000000000000000000000000000000000000000000000815260040180806020018281038252602e8152602001806131a8602e913960400191505060405180910390fd5b60008060019054906101000a900460ff161590508015612662576001600060016101000a81548160ff02191690831515021790555060016000806101000a81548160ff0219169083151502179055505b61266b82612f03565b600061013560006101000a81548160ff02191690831515021790555080156126a85760008060016101000a81548160ff0219169083151502179055505b5050565b600073ffffffffffffffffffffffffffffffffffffffff168373ffffffffffffffffffffffffffffffffffffffff161415612732576040517f08c379a00000000000000000000000000000000000000000000000000000000081526004018080602001828103825260248152602001806131fb6024913960400191505060405180910390fd5b600073ffffffffffffffffffffffffffffffffffffffff168273ffffffffffffffffffffffffffffffffffffffff1614156127b8576040517f08c379a00000000000000000000000000000000000000000000000000000000081526004018080602001828103825260228152602001806131136022913960400191505060405180910390fd5b80606960008573ffffffffffffffffffffffffffffffffffffffff1673ffffffffffffffffffffffffffffffffffffffff16815260200190815260200160002060008473ffffffffffffffffffffffffffffffffffffffff1673ffffffffffffffffffffffffffffffffffffffff168152602001908152602001600020819055508173ffffffffffffffffffffffffffffffffffffffff168373ffffffffffffffffffffffffffffffffffffffff167f8c5be1e5ebec7d5bd14f71427d1e84f3dd0314c0f7b2291e5b200ac8c7c3b925836040518082815260200191505060405180910390a3505050565b600073ffffffffffffffffffffffffffffffffffffffff168373ffffffffffffffffffffffffffffffffffffffff161415612929576040517f08c379a00000000000000000000000000000000000000000000000000000000081526004018080602001828103825260258152602001806131d66025913960400191505060405180910390fd5b600073ffffffffffffffffffffffffffffffffffffffff168273ffffffffffffffffffffffffffffffffffffffff1614156129af576040517f08c379a00000000000000000000000000000000000000000000000000000000081526004018080602001828103825260238152602001806130c06023913960400191505060405180910390fd5b612a0181606860008673ffffffffffffffffffffffffffffffffffffffff1673ffffffffffffffffffffffffffffffffffffffff16815260200190815260200160002054612b4390919063ffffffff16565b606860008573ffffffffffffffffffffffffffffffffffffffff1673ffffffffffffffffffffffffffffffffffffffff16815260200190815260200160002081905550612a9681606860008573ffffffffffffffffffffffffffffffffffffffff1673ffffffffffffffffffffffffffffffffffffffff16815260200190815260200160002054612e7b90919063ffffffff16565b606860008473ffffffffffffffffffffffffffffffffffffffff1673ffffffffffffffffffffffffffffffffffffffff168152602001908152602001600020819055508173ffffffffffffffffffffffffffffffffffffffff168373ffffffffffffffffffffffffffffffffffffffff167fddf252ad1be2c89b69c2b068fc378daa952ba7f163c4a11628f55a4df523b3ef836040518082815260200191505060405180910390a3505050565b600082821115612bbb576040517f08c379a000000000000000000000000000000000000000000000000000000000815260040180806020018281038252601e8152602001807f536166654d6174683a207375627472616374696f6e206f766572666c6f77000081525060200191505060405180910390fd5b600082840390508091505092915050565b600060019054906101000a900460ff1680612beb5750612bea611e1d565b5b80612c0257506000809054906101000a900460ff16155b612c57576040517f08c379a000000000000000000000000000000000000000000000000000000000815260040180806020018281038252602e8152602001806131a8602e913960400191505060405180910390fd5b60008060019054906101000a900460ff161590508015612ca7576001600060016101000a81548160ff02191690831515021790555060016000806101000a81548160ff0219169083151502179055505b612cb082611c52565b612cbe57612cbd826120ab565b5b8015612cdf5760008060016101000a81548160ff0219169083151502179055505b5050565b612ced82826123d8565b612d42576040517f08c379a00000000000000000000000000000000000000000000000000000000081526004018080602001828103825260218152602001806131656021913960400191505060405180910390fd5b60008260000160008373ffffffffffffffffffffffffffffffffffffffff1673ffffffffffffffffffffffffffffffffffffffff16815260200190815260200160002060006101000a81548160ff0219169083151502179055505050565b612daa82826123d8565b15612e1d576040517f08c379a000000000000000000000000000000000000000000000000000000000815260040180806020018281038252601f8152602001807f526f6c65733a206163636f756e7420616c72656164792068617320726f6c650081525060200191505060405180910390fd5b60018260000160008373ffffffffffffffffffffffffffffffffffffffff1673ffffffffffffffffffffffffffffffffffffffff16815260200190815260200160002060006101000a81548160ff0219169083151502179055505050565b600080828401905083811015612ef9576040517f08c379a000000000000000000000000000000000000000000000000000000000815260040180806020018281038252601b8152602001807f536166654d6174683a206164646974696f6e206f766572666c6f77000000000081525060200191505060405180910390fd5b8091505092915050565b600060019054906101000a900460ff1680612f225750612f21611e1d565b5b80612f3957506000809054906101000a900460ff16155b612f8e576040517f08c379a000000000000000000000000000000000000000000000000000000000815260040180806020018281038252602e8152602001806131a8602e913960400191505060405180910390fd5b60008060019054906101000a900460ff161590508015612fde576001600060016101000a81548160ff02191690831515021790555060016000806101000a81548160ff0219169083151502179055505b612fe7826115dd565b612ff557612ff482612105565b5b80156130165760008060016101000a81548160ff0219169083151502179055505b5050565b828054600181600116156101000203166002900490600052602060002090601f016020900481019282601f1061305b57805160ff1916838001178555613089565b82800160010185558215613089579182015b8281111561308857825182559160200191906001019061306d565b5b509050613096919061309a565b5090565b6130bc91905b808211156130b85760008160009055506001016130a0565b5090565b9056fe45524332303a207472616e7366657220746f20746865207a65726f2061646472657373506175736572526f6c653a2063616c6c657220646f6573206e6f742068617665207468652050617573657220726f6c6545524332303a20617070726f766520746f20746865207a65726f20616464726573734d696e746572526f6c653a2063616c6c657220646f6573206e6f74206861766520746865204d696e74657220726f6c65526f6c65733a206163636f756e7420646f6573206e6f74206861766520726f6c65526f6c65733a206163636f756e7420697320746865207a65726f2061646472657373436f6e747261637420696e7374616e63652068617320616c7265616479206265656e20696e697469616c697a656445524332303a207472616e736665722066726f6d20746865207a65726f206164647265737345524332303a20617070726f76652066726f6d20746865207a65726f2061646472657373a165627a7a723058203d69f443895042a8133294dbd07e69e47d1e7403d8543aa81c0c5b25354f137d0029",
  "source": "pragma solidity ^0.5.0;\n\nimport \"@openzeppelin/upgrades/contracts/Initializable.sol\";\nimport \"./ERC20Detailed.sol\";\nimport \"./ERC20Mintable.sol\";\nimport \"./ERC20Pausable.sol\";\n\n\n/**\n * @title Standard ERC20 token, with minting and pause functionality.\n *\n */\ncontract StandaloneERC20 is Initializable, ERC20Detailed, ERC20Mintable, ERC20Pausable {\n    function initialize(\n        string memory name, string memory symbol, uint8 decimals, uint256 initialSupply, address initialHolder,\n        address[] memory minters, address[] memory pausers\n    ) public initializer {\n        ERC20Detailed.initialize(name, symbol, decimals);\n\n        // Mint the initial supply\n        _mint(initialHolder, initialSupply);\n\n        // Initialize the minter and pauser roles, and renounce them\n        ERC20Mintable.initialize(address(this));\n        _removeMinter(address(this));\n\n        ERC20Pausable.initialize(address(this));\n        _removePauser(address(this));\n\n        // Add the requested minters and pausers (this can be done after renouncing since\n        // these are the internal calls)\n        for (uint256 i = 0; i < minters.length; ++i) {\n            _addMinter(minters[i]);\n        }\n\n        for (uint256 i = 0; i < pausers.length; ++i) {\n            _addPauser(pausers[i]);\n        }\n    }\n\n    function initialize(\n        string memory name, string memory symbol, uint8 decimals, address[] memory minters, address[] memory pausers\n    ) public initializer {\n        ERC20Detailed.initialize(name, symbol, decimals);\n\n        // Initialize the minter and pauser roles, and renounce them\n        ERC20Mintable.initialize(address(this));\n        _removeMinter(address(this));\n\n        ERC20Pausable.initialize(address(this));\n        _removePauser(address(this));\n\n        // Add the requested minters and pausers (this can be done after renouncing since\n        // these are the internal calls)\n        for (uint256 i = 0; i < minters.length; ++i) {\n            _addMinter(minters[i]);\n        }\n\n        for (uint256 i = 0; i < pausers.length; ++i) {\n            _addPauser(pausers[i]);\n        }\n    }\n}\n",
  "sourcePath": "contracts/token/ERC20/StandaloneERC20.sol",
  "compiler": {
    "name": "solc",
    "version": "0.5.7+commit.6da8b019.Emscripten.clang",
    "optimizer": {},
    "evmVersion": "constantinople"
  },
  "schemaVersion": "3.0.9",
  "updatedAt": "2019-10-02T23:29:05.172Z",
  "devdoc": {
    "methods": {
      "allowance(address,address)": {
        "details": "See `IERC20.allowance`."
      },
      "balanceOf(address)": {
        "details": "See `IERC20.balanceOf`."
      },
      "decimals()": {
        "details": "Returns the number of decimals used to get its user representation. For example, if `decimals` equals `2`, a balance of `505` tokens should be displayed to a user as `5,05` (`505 / 10 ** 2`).     * Tokens usually opt for a value of 18, imitating the relationship between Ether and Wei.     * > Note that this information is only used for _display_ purposes: it in no way affects any of the arithmetic of the contract, including `IERC20.balanceOf` and `IERC20.transfer`."
      },
      "initialize(string,string,uint8)": {
        "details": "Sets the values for `name`, `symbol`, and `decimals`. All three of these values are immutable: they can only be set once during construction."
      },
      "mint(address,uint256)": {
        "details": "See `ERC20._mint`.     * Requirements:     * - the caller must have the `MinterRole`."
      },
      "name()": {
        "details": "Returns the name of the token."
      },
      "pause()": {
        "details": "Called by a pauser to pause, triggers stopped state."
      },
      "paused()": {
        "details": "Returns true if the contract is paused, and false otherwise."
      },
      "symbol()": {
        "details": "Returns the symbol of the token, usually a shorter version of the name."
      },
      "totalSupply()": {
        "details": "See `IERC20.totalSupply`."
      },
      "unpause()": {
        "details": "Called by a pauser to unpause, returns to normal state."
      }
    },
    "title": "Standard ERC20 token, with minting and pause functionality. "
  },
  "userdoc": {
    "methods": {}
  }
}